:020000040800F2
:10000000A042002001010008551C0008F318000858
:10001000491B0008C111000823310008000000003E
:10002000000000000000000000000000E5270008BC
:10003000C514000800000000E92000081929000884
:100040001B0100081B0100081B010008A524000873
:100050001B0100081B0100081B0100081B01000810
:100060001B0100081B0100081B0100081B01000800
:100070001B0100081B0100081B0100081B010008F0
:100080001B0100081B0100081B0100081B010008E0
:100090001B0100081B0100081B0100081B010008D0
:1000A0001B0100081B0100081B0100081B010008C0
:1000B0001B0100081B0100081B0100081B010008B0
:1000C0001B0100081B0100081B0100081B010008A0
:1000D0001B010008A92C0008592E00081B0100086C
:1000E000311600081B0100081B010008DFF80CD0C6
:1000F00000F052FE00480047593F0008A04200208F
:100100000648804706480047FEE7FEE7FEE7FEE7B1
:10011000FEE7FEE7FEE7FEE7FEE7FEE71D29000833
:10012000ED000008A0F14101192900D820307047E6
:1001300040EA01039B0703D009E008C9121F08C069
:10014000042AFAD203E011F8013B00F8013B521EE9
:10015000F9D27047D2B201E000F8012B491EFBD260
:1001600070470022F6E710B513460A4604461946C2
:10017000FFF7F0FF204610BD421C10F8011B0029BC
:10018000FBD1801A704710B5002200E0521C835C3E
:100190008C5CA34201D1002BF8D1D8B2E1B2401A55
:1001A00010BD30B505460020034600E05B1C9342BD
:1001B00005D2EC5CC85C201A01D1002CF6D130BD10
:1001C0002DE9FF4F087883B09946FF2805D0491CD8
:1001D0002D2804D00024002008E000200BE001249A
:1001E000F9E700EB800003EB4000491C0B78FF2B84
:1001F000F7D104B1404200230293147819461D46FA
:100200002D2C01D02B2C04D1521C2D2C13D00024CA
:100210000294AA461478FF2C0FD00A25A3FB057878
:1002200001FB05814FF0000C03FB0C11521CE3197C
:100230004AEB0101EEE70124EAE7814453EA0100B9
:1002400002D019F5C87F06DA03980021C0E9001131
:1002500007B0BDE8F08F0025AE4E2F46DFF8B8821C
:10026000184600F075FDCDE90001B9F1000002DA91
:10027000C9F1000400E004460023A74A1AEB030B6F
:1002800042EB045A12E0E00707D02A4633463846CC
:10029000414600F01EFA074688462A463346104675
:1002A000194600F016FA05460E466410002CEAD1F5
:1002B000DDE90001B9F1000F5A46534606DA00F0B5
:1002C0007AFA3A46434600F076FA05E000F001FA81
:1002D0003A46434600F0FDF9029A0AB181F0004126
:1002E000039AC2E90001B3E72DE9FF4F1F468DB025
:1002F000D7E901464FF0FF382E2045464FF0000960
:100300000B90B9696D1C0E988847396A82468847F8
:100310000028F6D1BAF1FF3F0AD024F4D064002EB1
:1003200011DDBAF12B0F08D0BAF12D0F0BD102E07D
:10033000404611B08DE744F48064B9696D1C0E9895
:1003400088478246761E6946600501D52D2000E06B
:100350002B208DF8000001F1010B0DF1200809E0C0
:10036000B9696D1C0E98884782460F9844F4007452
:10037000761E0560002E02DDBAF1300FF0D00B9929
:100380008A453ED144F0800406E00F99681CA9F12B
:10039000010944F400740860B9696D1C761E0E985A
:1003A000884782463028F0D02BE00B998A4505D14A
:1003B000200603D444F08004761E18E0504603F073
:1003C00001F808B30DF11301761E44F400748B4557
:1003D00008D2AAF130000BF8010B200607D5A9F1CD
:1003E000010003E0200602D409F101008146A005C6
:1003F00002D50F99681C0860B9696D1C0E98884772
:100400008246002ED1DC53E0002E51DDBAF1650F9B
:1004100002D0BAF1450F4BD1A00549D5B9696D1C81
:1004200024F44074761E0E9888478246002E0CDD18
:100430002B2804D0BAF12D0F07D144F48074B96988
:100440006D1C0E9888478246761EE00501D52D2149
:1004500000E02B2108F8011BCDF82C8021E00DF1E4
:100460002901761E44F4007488450CD2AAF13000AC
:1004700010F0FF0088F8000002D10B99884509D9D7
:1004800008F1010806E0E00501D5244801E042F248
:100490000F708146B9696D1C0E98884782460F9887
:1004A0000560002E04DD504602F08CFF0028D6D1F6
:1004B000F9690E988847FF208BF8000088F8000043
:1004C0000020069007904B466A4608A906A8FFF749
:1004D00077FEA00502D46FF001002AE714F0240F84
:1004E0000AD0E00714D1DDE906123868031D3B602D
:1004F0000068C0E900120BE0DDE9060100F088FAAF
:100500000146E00704D13868021D3A6000680160C6
:1005100028460EE7000014400000F03FF1D8FFFF2E
:1005200080EA010210B502F00043400022D04A00E8
:100530001FD0010E01EB1261C0F35600C2F3560248
:1005400040F4000042F40002A0FB022000047F39C6
:10055000140400D0401C50EA124001D44000491E4F
:10056000C2B20C0604EBD010401C4008802A02D016
:1005700003E0002010BD20F00100002900DA002077
:10058000184310BD2DE9FE4F804681EA0300C00FDD
:100590000C46009021F0004123F00045B8EB02002A
:1005A000A94105D24046214690461C460B460246CC
:1005B00023F00040104347D0270DC7F30A00C3F3D0
:1005C0000A510290401A019040286BDAC3F31300DD
:1005D00040F4801B0098924620B10023D2EB030A1E
:1005E00063EB0B0B01985946C0F14002504600F0F6
:1005F0007CFA06460D4650465946019A00F094FA98
:1006000010EB08006141002487EA115284EAE77385
:100610001A4340D0009A62B3019A012A4FEA075266
:1006200015DC001B61EB02014FF0004202EA0752A9
:10063000CDE90042001C41F5801132462B4600F006
:1006400039FB03B0BDE8F08F40462146F9E7001BB7
:1006500061EB0201001C41F5801300185B4120187A
:10066000A2F5001747EB030140EAD570B6196D41BA
:1006700011E06D084FEA360645EAC0754FEA0752A9
:10068000001B61EB0201001C41F5801149084FEA93
:1006900030000019514132462B4603B0BDE8F04FFF
:1006A00000F0F9BA0098012240000023D0EB0202CA
:1006B00063EBE073009821464FEAE074B8EB00006A
:1006C00061EB0401E9E783F000435BE781F000415F
:1006D00058E72DE9FE4F81EA030404F0004421F0BD
:1006E000004100944FF0000B23F0004350EA010456
:1006F0005ED052EA03045BD0C3F30A54C1F30A5537
:100700002C44A4F2F3340194A0FB0254C1F313016E
:1007100041F48011C3F3130343F4801301FB02443B
:1007200000FB034E840A970A44EA815447EA835740
:10073000A4FB076802958D0A05FB07854FEA932CF9
:1007400004FB0C542705029D4FEA065847EA16376A
:10075000B5EB08056EEB070C870E920E47EA811782
:1007600042EA8312A7FB0201B6EB0B0164EB000423
:100770002B0D43EA0C335E1844EB1C50DA4651460D
:10078000E7FB0201C5F313044FEA0B3343EA1453AA
:100790004FEA0432019C43EA0603A4F10C040294DC
:1007A000009CCDE900B400F085FA03B0BDE8F08FFD
:1007B00000200146F9E72DE9F04D81EA030404F039
:1007C000004B21F0004514464FF0000A23F0004191
:1007D00050EA050220D054EA01021DD0C5F30A57A1
:1007E0000246C5F31303C1F31300C1F30A5640F4E4
:1007F000801543F48013A7EB0608101BD64608F2B9
:10080000FD3873EB050002D308F1010801E09218EE
:100810005B41B8F1000F03DA00200146BDE8F08D1E
:1008200000204FF48011064684460EE0171B73EB40
:10083000050705D3121B63EB050306434CEA010CC5
:1008400049084FEA300092185B4150EA0107EDD1A8
:1008500052EA030012D082EA040083EA0501084349
:1008600005D0101BAB4106D20122002306E0002276
:100870004FF0004302E06FF0010253101AEB060044
:100880004CEB085110EB0A0041EB0B01BDE8F04DB9
:1008900000F001BAC10F80EAE0700844CA0796234D
:1008A000002100F0CAB90EB540F233410291002197
:1008B000CDE900110A460B4600F0FCF903B000BD7B
:1008C00000F0004220F00040C10DC0F3160040F4DB
:1008D00000007F2901DA00207047962903DCC1F16E
:1008E0009601C84001E096398840002AF4D0404281
:1008F000704720F00040C10DC0F3160040F4000026
:100900007F2901DA00207047962903DCC1F19601A6
:10091000C840704796398840704770B5C1F30A5295
:1009200001F000450024C1F3130140F2FF3341F40C
:1009300080119A4201DA002070BD40F233439A429E
:10094000A2F2334203DC524200F0DEF800E09040B5
:100950002C43F1D0404270BDC1F30A5210B5C1F32F
:10096000130140F2FF3341F480119A4201DA002072
:1009700010BD40F233439A42A2F2334203DC5242AA
:1009800000F0C2F810BD904010BD00F0004230F001
:1009900000400AD0C10D01F56071C0F3160042EAB3
:1009A0000151C208400711437047002001467047BB
:1009B00030B5041E71F1000404DB4FF000444042E6
:1009C00064EB0101141E73F1000405DB1C464FF0BB
:1009D0000043524263EB04038B4208BF824230BDA6
:1009E00030B5041E71F1000404DB4FF000444042B6
:1009F00064EB0101141E73F1000405DB1C464FF08B
:100A00000043524263EB0403994208BF904230BD59
:100A100001F0004330B421F0004150EA010206D059
:100A20000A0DA2F56072C1F31301002A02DC30BC8A
:100A300000207047440F44EAC104C100E01830BCF4
:100A400000EBC25000F0F0B8002801DBC0F100401C
:100A5000002901DBC1F100418842704730B50B46E7
:100A6000014600202022012409E021FA02F59D42DE
:100A700005D303FA02F5491B04FA02F52844151EB2
:100A8000A2F10102F1DC30BD2DE9F05F0546002046
:100A900092469B4688460646814640241BE02846EF
:100AA00041464746224600F02FF853465A46C01AA0
:100AB000914110D311461846224600F016F82D1A1F
:100AC00067EB01084F4622460120002100F00DF897
:100AD00017EB00094E41201EA4F10104DFDC48465B
:100AE00031462A464346BDE8F09F202A04DB203ADF
:100AF00000FA02F1002070479140C2F1200320FA71
:100B000003F3194390407047202A04DB203A21FA6E
:100B100002F00021704721FA02F3D040C2F1200216
:100B20009140084319467047202A06DBCB17203A2C
:100B300041FA02F043EAE07306E041FA02F3D040E2
:100B4000C2F120029140084319467047426842B101
:100B5000016811F8013B23B1521EC0E9001218468A
:100B600070470121C160881E704742685AB1C3684E
:100B7000016843B983688B4205D0491E521CC0E905
:100B80000012002070474FF0FF3070470FB4002371
:100B900000B589B00CA900910B996FF00042CB60B1
:100BA0001E4B06931E4B07930423CDE901321D4AC9
:100BB000089202466B460020FFF796FB09B05DF8ED
:100BC00014FB70B586B006464FF0FF300091CDE9BA
:100BD0000101002015460C4604903246694604A8DF
:100BE000FFF7D4FF02460498211825B108B1084642
:100BF00000E020462860049800280DD0002A02DD7D
:100C00000098884208D0081B0094CDE901043246C0
:100C1000694604A8FFF7BAFF06B070BD4D0B000887
:100C20006B0B0008BD0D00080029A8BF7047401CD1
:100C3000490008BF20F00100704710B4B0FA80FCF2
:100C400000FA0CF050EA010404BF10BC704749B12F
:100C5000CCF1200421FA04F411FA0CF118BF01219F
:100C600021430843A3EB0C01CB1D4FEA00614FEA7F
:100C7000102042BF002010BC704700EBC35010444E
:100C80000029A4BF10BC7047401C490008BF20F0D9
:100C9000010010BC704710B5141E73F1000408DA8F
:100CA000401C41F1000192185B411A4301D120F030
:100CB000010010BD2DE9F04D92469B4611B1B1FAED
:100CC00081F202E0B0FA80F220329046FFF70DFF89
:100CD00004460F4640EA0A0041EA0B0153465A46D1
:100CE000084313D0114653EA010019D0C8F140025D
:100CF0005046FFF709FF05460E4650465946424604
:100D0000FFF7F3FE084305D0012004E020463946F2
:100D1000BDE8F08D0020054346EAE0762C433743DA
:100D20000A986305E40AA0EB08000022FD0A44EAE1
:100D300047540A3002D500200146E9E701051019A1
:100D40006941DDE9084500196941BDE8F04DA2E7B8
:100D50000EB540F2334202920022CDE90022134642
:100D6000FFF7A8FF03B000BDC1F30A52C1F313019E
:100D700040F2FF3341F480119A4202DA002001462A
:100D8000704740F233439A42A2F2334202DC5242AD
:100D9000FFF7BABEFFF7A9BE064C074D06E0E068B4
:100DA00040F0010394E8070098471034AC42F6D3B2
:100DB000FFF7A0F9E858000808590008C0B24FF43E
:100DC000F05100F001B800007F2801D9002208E0AE
:100DD000064A02EB5002C007127800D1120902F055
:100DE0000F0201209040084070470000B0570008F3
:100DF00021B1826842F00102826003E0826822F041
:100E0000010282607047014600208A6802F00402F5
:100E10000AB1012000E0002070470146C86C80B292
:100E200070470246002013680B400BB1012000E020
:100E300000207047014600208A6802F008020AB1CB
:100E4000012000E00020704730B50246002000235A
:100E500050680F4C20400D790C6844EA052420436B
:100E6000506090680B4C2040D1E902542C434D79DE
:100E700044EA450420439060D06A20F470000C7C62
:100E8000641EE4B2234340EA0350D06230BD000048
:100E9000FFFEF0FFFDF7F1FFF0B504460D46002020
:100EA0000021092D11DDE068A5F10A0606EB4607D1
:100EB000072606FA07F18843A5F10A0606EB46065F
:100EC00003FA06F10843E0600CE0206905EB4507F2
:100ED000072606FA07F1884305EB450603FA06F1F3
:100EE00008432061072A0FDA606B561E06EB86075F
:100EF0001F2606FA07F18843561E06EB860605FAFA
:100F000006F10843606322E00D2A0FDA206BD61F3A
:100F100006EB86071F2606FA07F18843D61F06EB65
:100F2000860605FA06F10843206310E0E06AA2F1A4
:100F30000D0606EB86071F2606FA07F18843A2F185
:100F40000D0606EB860605FA06F10843E062F0BDE1
:100F5000816841F008018160704721B1826842F4E4
:100F6000A002826003E0826822F4A00282607047DF
:100F7000816841F0040181607047000010B50446AB
:100F80000723012221460948FFF786FF0121074870
:100F9000FFF7E3FF00BF02210448FFF742FF0028EC
:100FA000F9D00248FFF739FF10BD000000240140CE
:100FB00000B587B00121480201F0B4F801210420F6
:100FC00001F0B0F80121102001F0ACF84FF400401E
:100FD00001F08CF800208DF81B000220ADF81800FD
:100FE00003208DF81A0006A91C4800F0CDFB002054
:100FF0008DF81B000420ADF8180003208DF81A00AE
:1010000006A9174800F0C0FB0020019004904FF49F
:101010006020039000208DF809008DF80800022060
:101020008DF8140001A90F48FFF70EFF01210D48AC
:10103000FFF7DEFE0B48FFF78BFF00BF0948FFF705
:10104000F9FE0128FAD00748FFF792FF00BF0548D4
:10105000FFF7D9FE0128FAD007B000BD0008014013
:10106000001001400024014010B5012001F06AF891
:10107000002001F067F810BD08B50146002000907F
:10108000034800900098084400900098008808BD2C
:10109000006C004008B500220092044A0092009AB9
:1010A00002440092009A116008BD0000006C0040EC
:1010B00010B54FF48051094800F0F1FB012806D12A
:1010C00007A20D21042000F059FF012010BD06A247
:1010D0000D21042000F052FF0020F7E70008014036
:1010E0006C696E6B000000006C6F7365000000009F
:1010F00000B587B00121480401F004F80121042063
:1011000001F010F84FF48050ADF8180048208DF829
:101110001B0003208DF81A0006A9274800F034FBB5
:1011200018208DF81B000420ADF8180003208DF85E
:101130001A0006A9204800F027FB48208DF81B0064
:101140000820ADF8180003208DF81A0006A91A48E7
:1011500000F01AFB4FF4E13002900020ADF81400CB
:101160000C20ADF812000020ADF81000ADF80E0014
:10117000ADF80C0002A9114801F05EFF4FF4A06029
:1011800000F0A2FD26208DF8040001208DF8070054
:1011900002208DF805008DF8060001A800F05CFD26
:1011A000012240F22551054801F021FF01210348A9
:1011B00001F0DAFE07B000BD000801400044004025
:1011C00000BFFEE708B50121202000F0ABFF0120A1
:1011D000ADF8000010208DF8030003208DF8020008
:1011E0006946044800F0D0FA0121024800F07AFB79
:1011F00008BD00000014014010B500F00FF84FF4D6
:101200002F7000F060F900F001F810BD10B5012159
:10121000014800F067FB10BD0014014010B501212A
:10122000014800F045FB10BD001401402DE9FC5FB2
:101230002C48FEF7A1FF01902A48019902F0D2FC48
:10124000009029A1009802F0B7FC0446207D2749B0
:10125000087027A1009802F0AFFC0546287D2549BB
:1012600008700123084602780D21032000F064FE77
:1012700021A1009802F0A0FC0646307D20490870AC
:1012800020A1009802F098FC0746387D204908709C
:1012900020A1009802F090FC804698F814001F49A5
:1012A00008701FA1009802F087FC814699F814008D
:1012B0001D4908701DA1009802F07EFC82469AF834
:1012C00014001C4908701CA1009802F075FC8346AC
:1012D0009BF814001A490870009802F041FCBDE820
:1012E000FC9F00009B0400206C6400006F00002045
:1012F000737769004C0000206C69676874310000E6
:101300004D00002064657669636549640000000053
:101310005100002074656D70330000006D000020E6
:1013200069727231000000004E00002074656D701B
:10133000340000006E00002076656E7431000000FD
:101340004F00002010B5002400F0B4FA04E0601C47
:10135000C4B2012000F0C3F802210F4800F09FFA48
:1013600008B9642CF3DB642C01DB002010BD0024E1
:1013700004E0601CC4B2012000F0B1F8022106486C
:1013800000F08DFA08B1642CF3DB642C01DB002043
:10139000ECE70120EAE70000000C014010B5012154
:1013A000082000F0BFFE0220064908801020C87007
:1013B00001208870044800F0E7F900F06FF8FFF7AB
:1013C000C1FF10BD38000020000C014010B5002402
:1013D00004E0601CC4B2012000F081F80221104832
:1013E00000F05DFA08B1642CF3DB002404E0601C1B
:1013F000C4B2012000F073F80221094800F04FFA4E
:1014000008B9642CF3DB1E2000F069F802210448BF
:1014100000F045FA08B1012010BD0020FCE70000F3
:10142000000C014070B50024002506E06006040EA3
:10143000FFF7CCFF0443681CC5B2082DF6DB20463D
:1014400070BD7CB505460E4600F028F8FFF77AFF20
:1014500001281FD1002405E0FFF7E4FF0DF8040088
:10146000601CC4B2052CF7DB9DF800009DF801104C
:1014700008449DF8021008449DF8031008449DF8A4
:101480000410884208D19DF8000030709DF80200D9
:10149000287001E000207CBD0120FCE710B500F0C1
:1014A00015FA0221064800F003FA142000F00BF8A8
:1014B0000221034800F016FA1E2000F010F810BDBB
:1014C000000C0140704700B5034603E04FF47A700A
:1014D00000F005F8181EA3F10103F7D100BD00EBE1
:1014E000C001C9004FF0E022516100219161052146
:1014F000116100BF4FF0E021096901F4803100293A
:10150000F8D004214FF0E0221161704710B54FF47C
:1015100080610B48FEF725FE0A4802680A48016808
:101520000AA001F001FE4FF47A70FFF7CCFF0EA184
:101530000348FEF728FE08B9042010BD00BFFCE7F1
:101540009B040020480000204400002041542B430D
:10155000495053544152543D22544350222C222589
:1015600073222C25730D0A004F4B000010B54FF469
:1015700080611348FEF7F5FD12A001F0D5FD4FF490
:10158000FA60FFF7A0FF4FF480610D48FEF7E9FD18
:10159000104802681048016810A001F0C5FD4FF422
:1015A0007A60FFF790FF04E04FF480610448FEF793
:1015B000D8FD10A10248FEF7E6FD0028F4D010BDCA
:1015C0009B04002041542B43574D4F44453D310D62
:1015D0000A000000400000203C00002041542B4342
:1015E000574A41503D222573222C222573220D0A91
:1015F000000000004F4B000010B54FF4806106481A
:10160000FEF7AFFD05A001F08FFD4FF4FA70FFF774
:101610005AFF0648007810BD9B04002041542B431C
:1016200049505354415455530D0A000052000020B4
:1016300010B54FF4806000F01BF801280DD1810235
:10164000064800F02CF920B905480078401C0449F0
:1016500008704FF4806000F005F810BD00100140E4
:101660006400002001490860704700001404014034
:10167000014600200022074B1B6803EA0102054BCC
:1016800014331B680B4013B10AB1012000E00020A5
:101690007047000000040140002123498279002A9C
:1016A0003AD00A46126803689A430B461A600A1D2C
:1016B000126803689A430B1D1A60027911440A6884
:1016C00003681A430A60184A0832126803689A438A
:1016D000154B08331A601A1D126803689A43124B9F
:1016E0000C331A604279102A0ED11A1F126803684F
:1016F0001A430D4B08331A601A1D126803681A4307
:10170000094B0C331A600DE00749427911440A680D
:1017100003681A430A6005E0027911440A68036805
:101720009A430A60704700000004014010B5054A62
:101730000D21032000F022FC40F201410148FEF798
:1017400010FD10BD9B08002030B500228B071C0F38
:101750000F2303FA04F20B4B8C1053F824309343FD
:10176000084C8D1044F8253023468C1053F8243053
:101770008C07240F00FA04F42343024C8D1044F824
:10178000253030BD080001402DE9F041024600251A
:101790000026002000230024002791F803C00CF04D
:1017A0000F0591F803C00CF0100CBCF1000F03D032
:1017B00091F802C04CEA050591F800C0BCF1000F99
:1017C00031D0146800202BE04FF0010C0CFA00F32C
:1017D000B1F800C00CEA03069E4220D183004FF00E
:1017E0000F0C0CFA03F7BC4305FA03FC4CEA0404A3
:1017F00091F803C0BCF1280F06D14FF0010C0CFA90
:1018000000FCC2F814C00AE091F803C0BCF1480F14
:1018100005D14FF0010C0CFA00FCC2F810C0401CBE
:101820000828D1D31460B1F800C0BCF1FF0F34DD3B
:10183000546800202EE000F1080C4FF0010808FA6F
:101840000CF3B1F800C00CEA03069E4221D18300DC
:101850004FF00F0C0CFA03F7BC4305FA03FC4CEAFB
:10186000040491F803C0BCF1280F05D100F1080C65
:1018700008FA0CF8C2F8148091F803C0BCF1480FC4
:1018800007D100F1080C4FF0010808FA0CF8C2F873
:101890001080401C0828CED35460BDE8F081024679
:1018A000002093680B400BB1012000E0002070473E
:1018B0004161704710B504200249C8700248FFF723
:1018C00063FF10BD38000020000C014010B510204F
:1018D0000249C8700248FFF757FF10BD38000020CA
:1018E000000C0140016170470AB1016100E04161F3
:1018F000704700BFFEE70146CA1701EB92729210D3
:10190000A1EB820292B9642091FBF0F200FB12106D
:1019100050B94FF4C87091FBF0F200FB121008B9F7
:10192000012070470020FCE70120FAE70020F8E7DB
:101930002DE9F04107460C4615461E4600F094F886
:101940001748007801280CD116480078012801D1E9
:1019500000F06CF81448007801281FD100F07AF8E4
:101960001CE0AF4205DD01201049086000F05EF880
:1019700004E000200D49086000F04EF83146204692
:10198000FFF762F805D201200949086000F062F80B
:1019900004E000200649086000F052F8BDE8F0813C
:1019A0004C0000204D0000204E00002014000020BC
:1019B0001800002070B505460C4600F0C7F8134823
:1019C000007801280BD112480078012803D1282083
:1019D00000F0D4F819E0002000F0D0F815E0A5429E
:1019E00010DA0C48006868B901200A49086028200C
:1019F00000F0C4F842F21070FFF765FD002000F01F
:101A0000BDF802E0002000F0B9F870BD4C000020E5
:101A10004F0000201C00002010B54FF40071024858
:101A2000FFF760FF10BD0000000C014010B54FF43F
:101A300000710248FFF73CFF10BD0000000C0140A0
:101A400010B54FF480710248FFF74CFF10BD000045
:101A50000008014010B54FF480710248FFF728FFDD
:101A600010BD00000008014008B50121042000F06D
:101A700059FB0121082000F055FB10208DF80300D0
:101A80000001ADF8000003208DF8020069460D4802
:101A9000FFF77AFE4FF480710A48FFF723FF10200A
:101AA0008DF803004001ADF8000003208DF802001E
:101AB00069460548FFF768FE4FF400710248FFF7DA
:101AC00011FF08BD00080140000C01401FB50121B5
:101AD000102000F027FB0121084600F023FB4820DE
:101AE0008DF80F004FF48060ADF80C0003208DF8E6
:101AF0000E0003A91348FFF747FE0A210220FFF753
:101B000023FE4FF48060019001208DF80A00002030
:101B10008DF808000C208DF8090001A8FFF7BCFD26
:101B20004FF4A06000F0D0F828208DF800000120CC
:101B30008DF803008DF801008DF80200684600F072
:101B40008BF81FBD0010014000BFFEE708B5012162
:101B5000202000F0E7FA10208DF803003020ADF8C7
:101B6000000003208DF8020069460348FFF70CFED1
:101B700000F054FA08BD00000014014010B50446FE
:101B800010210548FFF7AEFE20210348FFF790FE25
:101B9000A0B200F099FA10BD0014014000B587B062
:101BA0004FF4A06000F090F80121880300F0BAFA29
:101BB0000121042000F0B6FA18208DF81B004FF424
:101BC0000070ADF8180003208DF81A0006A91F4810
:101BD000FFF7DAFD48208DF81B004FF48060ADF868
:101BE000180003208DF81A0006A91848FFF7CCFD4D
:101BF0004FF4E13002900020ADF814000C20ADF855
:101C000012000020ADF81000ADF80E00ADF80C0089
:101C100002A90F4801F010FA25208DF804000120D8
:101C20008DF807008DF8050000208DF8060001A84A
:101C300000F012F8012240F22551054801F0D7F9D1
:101C40000121034801F090F907B000BD00080140F0
:101C5000003801407047000070B5002100230F22BA
:101C6000C47804B3154C246804F4E064C4F5E0645B
:101C7000210AC1F10403CA40447804FA03F18478CC
:101C80001440214309010E4C0678A155047804F054
:101C90001F050124AC4005786D11AD0005F1E0256C
:101CA000C5F8004109E0047804F01F050124AC40A8
:101CB000044D0678761145F8264070BD0CED00E025
:101CC00000E400E080E100E002490143024A1160C3
:101CD000704700000000FA050CED00E070B500242C
:101CE0000EE00021204600F0DBF8002504E0002093
:101CF00000F072F9681CC5B2802DF8DB601CC4B21C
:101D0000082CEEDB70BD70B5002406E0002500E075
:101D10006D1CB5F57A7FFBD3641CB4F57A7FF5D3DF
:101D200000F052F8AE2000F03DF9D52000F03AF96D
:101D3000802000F037F9A82000F034F93F2000F0AF
:101D400031F9D32000F02EF9002000F02BF94020CB
:101D500000F028F9A12000F025F9C82000F022F9B0
:101D6000DA2000F01FF9122000F01CF9812000F0A9
:101D700019F9CF2000F016F9D92000F013F9F1205D
:101D800000F010F9DB2000F00DF9302000F00AF926
:101D9000A42000F007F9A62000F004F98D2000F03F
:101DA00001F9142000F0FEF8AF2000F0FBF8FFF777
:101DB00095FF70BD10B50246012000E050430B1E98
:101DC000A1F10101FAD110BD08B50121082000F0F0
:101DD000A9F910208DF8030003208DF802000120DE
:101DE000ADF8000069461E48FFF7CEFC4FF40050E6
:101DF000ADF8000069461A48FFF7C6FC4FF4804072
:101E0000ADF8000069461648FFF7BEFC4FF40040ED
:101E1000ADF8000069461248FFF7B6FC4FF4807039
:101E2000ADF8000069460E48FFF7AEFC01221146EE
:101E30000B48FFF759FD012251030948FFF754FDF4
:101E4000012291030648FFF74FFD0122D103044808
:101E5000FFF74AFD012211020148FFF745FD08BDC9
:101E6000000C014070B50546002414E00022012159
:101E70000A48FFF739FD8020204100EA05024FF4AF
:101E800000510648FFF730FD012211460348FFF7D5
:101E90002BFD601CC4B2082CE8DB70BD000C0140B7
:101EA00070B505460C4645F0B00000F07BF81021F7
:101EB00041EA141000F076F804F00F0000F072F818
:101EC00070BD00002DE9F04105460E461746721E12
:101ED000D206110E6A1E5206100EFFF7E1FF002413
:101EE00009E0A7F12001134A02EB0111085D00F09F
:101EF00073F8601CC4B2082CF3DB721ED206110EFC
:101F00006A1E012303EB4202D0B2FFF7C9FF00248F
:101F10000BE0A7F12001074A02EB011204F10801CE
:101F2000505C00F059F8601CC4B2082CF1DBBDE82D
:101F3000F0810000404E00082DE9F04780460E4633
:101F400017461D46002415E0281B411E0A20FFF7F6
:101F500031FFB7FBF0F00A21B0FBF1F201FB1200F8
:101F600000F130093019C1B24A464046FFF7AAFFD6
:101F7000601CC4B2AC42E7DBBDE8F0872DE9F0415C
:101F800007460E461546002407E02A5D3019C1B207
:101F90003846FFF797FF601CC4B2285D0028F4D1D3
:101FA000BDE8F08110B5044600224FF48071094865
:101FB000FFF79AFC00224FF400410648FFF794FC1B
:101FC0002046FFF74FFF012211020248FFF78CFC69
:101FD00010BD0000000C014010B5044600224FF473
:101FE00080710848FFF780FC0122D1030548FFF704
:101FF0007BFC2046FFF736FF012211020148FFF764
:1020000073FC10BD000C014010B504462146024887
:1020100000F07AFD10BD00000004004000B589B05A
:102020000121042000F07EF80121022000F06AF86E
:10203000234800F0BBFC18208DF82300C020ADF829
:10204000200003208DF8220008A91E48FFF79CFB02
:102050000020ADF81A00ADF816006320ADF81800A6
:1020600040F2CF20ADF8140000208DF81C0005A927
:10207000134800F04DFD0121114800F07FFC0122C2
:1020800011460F4800F089FC01210D4800F079FC51
:1020900001A800F02FFD0120ADF806006020ADF88A
:1020A00004000020ADF80C00ADF80A0001A90448B6
:1020B00000F0CEFC01A9024800F07EFC09B000BD92
:1020C000000400400008014010B5044621460248C3
:1020D00000F01CFD10BD0000000400400149086232
:1020E0007047000000000E427047000001460020CB
:1020F000034A506820F44040084350607047000095
:102100000010024029B1064AD2690243044BDA6149
:1021100004E0034AD2698243014BDA617047000050
:102120000010024029B1064A92690243044B9A61A9
:1021300004E0034A92698243014B9A6170470000B0
:10214000001002400149086070470000400442420C
:1021500030B500210022002400232D4D6D6805F0CC
:102160000C0121B1042905D0082923D105E0294D0E
:10217000056022E0274D05601FE0254D6D6805F4E0
:102180007012234D6D6805F48034022505EB9242F0
:102190001CB9214D554305600BE01D4D6D6805F4DC
:1021A00000351DB11C4D5543056002E0194D5543E6
:1021B000056002E0174D056000BF00BF144D6D685B
:1021C00005F0F0010909154D6B5C0568DD404560BF
:1021D0000F4D6D6805F4E061090A104D6B5C4568B0
:1021E000DD4085600A4D6D6805F46051C90A0B4DEC
:1021F0006B5C4568DD40C560054D6D6805F4404188
:10220000890B074D6B5CC568B5FBF3F5056130BD07
:102210000010024000127A0000093D00000000207A
:102220001000002010B501460022002300204A11B2
:10223000012A02D1094C236806E0022A02D1074C88
:10224000236A01E0054C636A01F01F0201249440F7
:102250001C400CB1012000E0002010BD0010024025
:1022600000210B4A11700A4A203A82F820100128F6
:1022700002D0042808D103E00121054A117004E0CE
:102280000521034A117000E000BF00BF7047000045
:10229000201002400149086070470000800442425B
:1022A00001490860704700003C0442420249096A43
:1022B0000143014A11627047001002400249098837
:1022C0008143014A11807047042800400348008878
:1022D00040F01000014908807047000004280040C9
:1022E000034800884FF6EF710840014908807047A5
:1022F0000428004070B500260024002500F07AF87C
:1023000006463848B6FBF0F437480088A0423CD077
:1023100035490C8040F2B27510E02846FFF7EBFA21
:1023200040B1B4F5B77F02D3A4F5B77404E0681CDC
:1023300085B206E0A4F26D14681C85B2B4F5B67FD0
:10234000EBD800BF29488580002516E027498888FA
:10235000FFF7D1FA30B1012D04D11D2C01D31D3C62
:1023600009E00CE02248405DA04203D82048405DCF
:10237000241A00E003E0681C85B21C2CE6D200BFE2
:10238000681C1A498871601CC8711648B6FBF0F1C8
:1023900000FB11644FF46160B4FBF0F01349087066
:1023A0004FF46160B4FBF0F100FB11403C21B0FB45
:1023B000F1F00E4948704FF46160B4FBF0F100FB9E
:1023C00011403C21B0FBF1F201FB1200074988707B
:1023D0000B46DA799979988800F028F80349087251
:1023E000002070BD805101002000002090000020DE
:1023F000344E0008002103480188001F008841EA8C
:10240000004070471C28004001460020064A128800
:102410000A40D0B2044A121F12880A4012B108B111
:10242000012000E00020704704280040F0B503467A
:102430000C461546642093FBF0F0C6B2642093FB73
:10244000F0F700FB1730C1B2132E02DD01F164007A
:10245000C1B20846CF1701EB977701EBA707BAB2D5
:10246000072092FBF0F700FB172082B25719601E7D
:10247000DFF82CC01CF80000384482B2CF1701EB03
:102480009777BF10A1EB87071FB9032C01DA501E05
:1024900082B2072092FBF0F700FB1720C0B2F0BD1C
:1024A000284E000810B50120FFF7AEFF08B1FFF776
:1024B00021FF0220FFF7A8FF20B10220FFF7FEFE58
:1024C000FFF718FF0520FFF7F9FE00F013F910BD24
:1024D00029B1064A12880243044B1A8004E0034AD9
:1024E00012888243014B1A80704700000028004088
:1024F0001CB5002401214FF0C050FFF703FE01205E
:10250000FFF7ECFD0120FFF7C5FE00BF6120FFF7DC
:1025100089FE0128FAD10420FEF7AEFD45F25001F4
:10252000884243D0FEF7A0FD0120FFF799FE04E0AA
:10253000601CC4B20A20FEF7C6FF4120FFF772FEFE
:1025400008B9FA2CF4DBFA2C04DB4FF40070FFF727
:10255000ADFE03E04FF48070FFF7A8FE0120FFF707
:102560009FFE00F0C7F800F0CFF801210846FFF702
:10257000AFFF00F0BFF8FFF7A9FE47F6FF7000F0CD
:10258000A9F800F0B7F837203B2115230922CDE93F
:1025900000100A2140F2E77000F02AF8FFF7A0FED1
:1025A00045F250010420FEF775FD07E000F0ACF89D
:1025B00001210846FFF78CFF00F09CF800F004F8BA
:1025C000FFF798FE00201CBD08B54FF4A060FFF790
:1025D0007BFB03208DF8000002208DF80100012014
:1025E0008DF802008DF803006846FFF735FB08BD43
:1025F0002DE9F05F06460F4690469946DDE90AABA5
:10260000002440F2B270864203DB40F6330086427B
:1026100002DD0120BDE8F09F40F2B2750AE02846D5
:10262000FFF769F910B12048044401E01F48044451
:10263000681C85B2B542F2DB781EC7B2002510E0F7
:102640001B48405D40F2A321484304EBC0143046D0
:10265000FFF751F918B1012D01D116480444681C47
:1026600085B2BD42ECDBA8F1010040F2A321484352
:1026700004EBC014C9EB4910C0EB092004EB0014B3
:10268000CAEB0A1004EB80045C4401214FF0C050F7
:10269000FFF738FD0120FFF721FD204600F00CF880
:1026A00000F028F80020B5E70085E2018033E10161
:1026B000344E00088051010000B50246FFF706FEC7
:1026C000100C03490880091D0A80FFF709FE00BDB0
:1026D0001828004000B50246FFF7F8FDC2F303409A
:1026E00003490880091D0A80FFF7FAFD00BD0000BC
:1026F0000828004000BF0348008800F020000028A0
:10270000F9D0704704280040074800884FF6F77159
:1027100008400549088000BF0348008800F0080011
:102720000028F9D0704700000428004000B587B0A9
:102730004FF4A060FFF7C8FA01218804FFF7E2FC1C
:1027400001210820FFF7EEFC18208DF81B004FF444
:102750008060ADF8180003208DF81A0006A91F4804
:10276000FFF712F848208DF81B004FF40060ADF819
:10277000180003208DF81A0006A91848FFF704F87E
:102780004FF4165002900020ADF814000C20ADF864
:1027900012000020ADF81000ADF80E00ADF80C00EE
:1027A00002A90F4800F048FC27208DF80400012002
:1027B0008DF807008DF8050000208DF8060001A8AF
:1027C000FFF74AFA012240F22551054800F00FFCBC
:1027D0000121034800F0C8FB07B000BD000C014018
:1027E000004800407047000010B5FEF761FC01286A
:1027F00006D1044802680448017804A000F058FBA0
:1028000010BD00007800002051000020E8AEBEE5B9
:10281000A487E58FB73A25640D0A57494649E8BFB2
:102820009EE68EA5E78AB6E680813A256400000020
:1028300010B500F001F810BD0CB50020019000901B
:102840003348006840F480303149086000BF3048A8
:10285000006800F4003000900198401C019000983E
:1028600018B90198B0F5A06FF1D12948006800F4BB
:10287000003010B10120009001E00020009000988D
:10288000012843D12348006840F010002149086026
:102890000846006820F0030008600846006840F021
:1028A000020008601A4840681949486008464068B4
:1028B00048600846406840F48060486008464068C8
:1028C00020F47C1048600846406840F4E8104860F6
:1028D0000846006840F08070086000BF0C4800683F
:1028E00000F000700028F9D00948406820F003008B
:1028F000074948600846406840F00200486000BF51
:102900000348406800F00C000828F9D10CBD000015
:1029100000100240002002407047000010B513482C
:10292000006840F0010011490860084640681049FD
:1029300008400E494860084600680E4908400B49A7
:1029400008600846006820F4802008600846406857
:1029500020F4FE0048604FF41F008860FFF768FF16
:102960004FF000600449086010BD000000100240F4
:102970000000FFF8FFFFF6FE08ED00E0CA43028208
:10298000704721B1028842F00102028004E002880F
:102990004FF6FE731A40028070471AB183890B43C9
:1029A000838102E083898B438381704701894FF6DD
:1029B000F87211400181704770B500240022002395
:1029C000058C4FF6FE7635400584028C8388048B97
:1029D0004FF68F752C40B51E2C400D882C43751E6C
:1029E0002A400D892A434D882A43144DA8420BD012
:1029F000134DA84208D0134DA84205D0124DA8424D
:102A000002D0124DA84213D14FF6F7752A404D89D6
:102A10002A434FF6FB752A408D882A434FF6FF65FF
:102A20002B404FF6FF552B408D892B43CD892B43EF
:102A300083800483CD888586028470BD002C01408C
:102A40000034014000400140004401400048014082
:102A500070B5002400220023058C4FF6EF76354038
:102A60000584028C8388048B48F6FF752C404FF652
:102A7000FF452C400D884FF6FF7606EA05252C43CE
:102A80004FF6DF752A400D8906EA05152A434D8861
:102A900006EA05152A43154DA84202D0144DA84256
:102AA0001DD14FF67F752A404D894FF6FF7606EA15
:102AB00005152A434FF6BF752A408D8806EA05158D
:102AC0002A434FF6FF352B404FF2FF752B408D897F
:102AD00006EA85052B43CD8906EA85052B438380CD
:102AE0000483CD880587028470BD0000002C01405E
:102AF000003401400021018041808180C18001813A
:102B000041818181C181704781867047018770470B
:102B1000002202881D4B98420ED01D4B98420BD0CC
:102B2000B0F1804F08D01B4B984205D01A4B984209
:102B300002D01A4B984204D14FF68F731A404B883B
:102B40001A43174B984207D0164B984204D04FF6C1
:102B5000FF431A40CB881A4302808B8883850B88F9
:102B600003850A4B98420BD0094B984208D00E4B74
:102B7000984205D00D4B984202D00D4B984201D19E
:102B80000B7A03860123838270470000002C0140EA
:102B9000003401400004004000080040000C0040E8
:102BA000001000400014004000400140004401407B
:102BB000004801402DE9FE4304460D4616461F46D7
:102BC000DDE90A894FF480611048FDF7CAFA10A0C8
:102BD00000F0AAFA4FF4FA70FEF775FC104800787E
:102BE000072810D133462A4621460E488DE8800337
:102BF00000F09AFA4FF4FA70FEF765FC4FF480612A
:102C00000248FDF7AEFABDE8FE8300009B040020F9
:102C100041542B43495053454E443D38350D0A002D
:102C200052000020245800082DE9FF4704460E46B4
:102C300017461D46DDE90D9ADDF830804FF48061BE
:102C40001148FDF78EFA11A000F06EFA4FF47A7079
:102C5000FEF739FC12480078072812D123463A467D
:102C600031461048CDE9029ACDE9008500F05CFAC2
:102C70004FF47A70FEF727FC4FF480610248FDF7AD
:102C800070FABDE8FF8700009B04002041542B43ED
:102C9000495053454E443D3130350D0A0000000087
:102CA000520000208058000810B540F225515A48C3
:102CB00000F073F900285AD0574800F029FAC1B241
:102CC000564802780078401C544B18705448815480
:102CD00000782B281AD152484078492816D15048FC
:102CE0008078502812D14E48C07844280ED118461A
:102CF0000078401E4A49085C3A2807D1002019464E
:102D000008704FF480614648FDF72BFA444800787C
:102D100043281BD1424840784C2817D1404880783E
:102D20004F2813D13E48C07853280FD13C48007932
:102D300045280BD13A484079442807D1002037492B
:102D400008704FF480613648FDF70BFA334800787D
:102D5000401E3349085C7D280AD1FEF767FA4FF41C
:102D600080612F48FDF7FDF900202C49087051E0E3
:102D70002A480078401E2A49085C3E280BD10720CB
:102D8000284908704FF480612548FDF7EAF90020D2
:102D9000224908703EE021480078401E2049085C26
:102DA0000A2801D1012000E000201C490978891E71
:102DB0001B4A515C0D2901D1012100E0002108438B
:102DC00040B3002115480078801E154A115416A101
:102DD0001046FDF7D8F910B902201249087015A164
:102DE0000F48FDF7D0F910B903200E49087014A15F
:102DF0000B48FDF7C8F910B904200A49087013A15F
:102E00000748FDF7C0F910B90520064908700020F1
:102E10000249087010BD0000003801405300002036
:102E20009B040020520000205354415455533A3221
:102E3000000000005354415455533A330000000041
:102E40005354415455533A340000000053544154F4
:102E500055533A350000000010B540F22551114895
:102E600000F09BF8E8B10F4800F052F9C1B20E48EB
:102E700002780078401C0C4B18700C48815418469E
:102E80000078401E0949085C40280AD100211846F4
:102E90000078401E054A1154002019460870FEF7BC
:102EA00045FC10BD00440040540000209B08002059
:102EB0000FB438B5002405A8009040F20141114834
:102EC000009B049A00F040F90EE02046621C94B288
:102ED0000C4A115C0C4800F020F900BF40210A4860
:102EE00000F04EF80028F9D0B4F5806F04DA0548F8
:102EF000FDF742F90028E8D10020009038BC5DF8C9
:102F000014FB00009B080020004400400FB438B5BB
:102F1000002405A8009040F201411148009B049A4A
:102F200000F012F90EE02046621C94B20C4A115CCB
:102F30000C4800F0F2F800BF40210A4800F020F8E9
:102F40000028F9D0B4F5806F04DA0548FDF714F9CC
:102F50000028E8D10020009038BC5DF814FB000088
:102F60009A0000200048004021B1828942F40052BA
:102F7000828104E082894DF6FF731A408281704796
:102F800002460020B1F5007F00D100BF13880B403E
:102F90000BB1012000E00020704770B5024600240C
:102FA00000230025002040F66A16B14200D100BF80
:102FB000C1F3421501F01F03012606FA03F3012DA8
:102FC00002D19689334006E0022D02D1168A3340A1
:102FD00001E0968A33400C12012606FA04F41688A2
:102FE000344013B10CB1012000E0002070BDF0B5F9
:102FF0000346002400260025002040F66A17B94247
:1030000000D100BF1846C1F3421401F01F0601278A
:1030100007FA06F5012C01D10C3004E0022C01D195
:10302000103000E014301AB107682F43076002E047
:103030000768AF430760F0BD2DE9F04786B005464D
:103040000E460024A24600BFA1460027B08900B169
:1030500000BF2F462C8A4CF6FF700440F0880443D2
:103060002C82AC894EF6F3100440B08831890843B5
:10307000718908430443AC81AC8A4FF6FF40044099
:10308000B0890443AC8201A8FFF762F81F48874269
:1030900002D1DDF810A001E0DDF80CA0A88900F451
:1030A000004040B10AEBCA0000EB0A103168490049
:1030B000B0FBF1F807E00AEBCA0000EB0A10316838
:1030C0008900B0FBF1F86420B8FBF0F0040120099E
:1030D000642101FB1089A88900F4004040B132202E
:1030E00000EBC900B0FBF1F000F00700044308E07A
:1030F000322000EB09106421B0FBF1F000F00F006A
:1031000004432C8106B0BDE8F08700000038014080
:1031100001468888C0F308007047C1F30802828026
:10312000704700BFFEE700000FB4054B10B503A9C0
:10313000044A029800F04EF910BC5DF814FB000040
:10314000013E0008840000207CB5044600201D4696
:10315000164600290BD0491ECDE90041044B6A46B2
:103160002946304600F036F9009A002111707CBDE6
:10317000033B000830B528B1144C031F0020216820
:103180000A4605E0084630BD9A4203D81046526808
:10319000002AF9D1002800D041680BD00468A3EBC5
:1031A0000005A54204D11B681C440346046002E0EC
:1031B000436000E023603AB11C68D51AA54203D1F0
:1031C00015682C441C6052685A6030BD880000208D
:1031D0002DE9F04782460F4C10480D4E0E4F001B54
:1031E0004FF0000820F007054FF0010900221146BA
:1031F000504600F089FE002802D1306810B100204E
:10320000BDE8F0873C60C4E90058C6F80090EDE7DF
:103210008C000020A43C002088000020A03E00205C
:1032200002E008C8121F08C1002AFAD1704770478F
:10323000002001E001C1121F002AFBD170470000ED
:103240002DE9FF5F82B00021DDE90430020DDDF8D9
:1032500040B0034318D044F61050A2F2FF3242436C
:103260001514119801281FD0A5EB0B00401C5FEA34
:10327000000A4FF000064E4FDFF83891B046504636
:1032800015D5CAF1000413E0119801244AA30128BE
:1032900001D16FEA0B010298119AC0E90031C0E92F
:1032A000024206B0BDE8F09FCBF10000DFE7044624
:1032B0000021404A491842EB0450CDE9001012E0C9
:1032C000E00707D032463B4640464946FDF701FA43
:1032D0008046894632463B4610461946FDF7F9F9C5
:1032E00006460F466410002CEAD1DDE90401DDE951
:1032F0000023BAF1000F06DAFDF7EBF942464B4620
:10330000FDF7E7F905E0FDF756FA42464B46FDF7B3
:1033100052FA04460E460022284BFDF761FB03D803
:103320004FF0FF30014607E00022254B2046314692
:10333000FDF728F9FDF718FD102409E0002C0ADB41
:103340000A220023FDF7A0FB039B30321A55641EAE
:1033500050EA0102F2D1641C039AC4F1110314442F
:10336000119A012A03D0012208430DD10AE0084333
:1033700004D000204FF0110B119072E7A3EB0B0566
:103380006D1E0DE05B4504DD4FF0000205F1010507
:1033900004E003DA4FF00002A5F10105002AECD0A9
:1033A00002981199C0E90231C0E9004579E70000AF
:1033B000000014400000F03F300000000000F04327
:1033C0000000E03F30380A2801D201207047002079
:1033D000704700002DE9FF4F95B09B468946064691
:1033E00000250FE2252877D100242746F84A01213D
:1033F000059400E0044316F8013F203B01FA03F076
:103400001042F7D130782A2811D06FF02F0330788E
:10341000A0F13002092A16D8059A44F0020402EB02
:10342000820203EB42021044761C0590EFE759F844
:10343000042B0592002A03DA504244F4005405900C
:1034400044F00204761C30782E2816D116F8010FAD
:1034500044F004042A280DD06FF02F023078A0F138
:103460003003092B09D807EB870302EB4303C71886
:10347000761CF3E759F8047B761C30786C280FD063
:1034800006DC4C2817D068280DD06A2814D104E037
:10349000742810D07A280FD10DE044F400140AE00B
:1034A00044F4801401E044F440147278824202D162
:1034B00004F58014761C761C307866280BD013DC5B
:1034C000582877D009DC002875D04528F6D0462842
:1034D000F4D047281AD19DE118E0632835D064283C
:1034E00079D0652812D195E1702873D008DC67285F
:1034F000F1D069286FD06E280DD06F2806D1B5E0C5
:1035000073282CD0752875D0782874D05A4617990E
:1035100090476D1C75E1C4F30250022809D00328BE
:103520000DD0D9F8001004280DD00D6009F1040960
:1035300067E1D9F80010EA17C1E90052F6E7D9F8B7
:1035400000100D80F2E70D70F0E719F8041B8DF8FC
:10355000001000208DF80100EA46012003E059F830
:1035600004AB4FF0FF3061074FF0000102D40DE0D3
:1035700008F101018846B9420FDA8045F8DB1AF8F4
:1035800008100029F4D108E008F1010188468142C1
:10359000FADB1AF808100029F6D105985B46A0EB73
:1035A000080721463846179A00F094FA284400EBA1
:1035B000080507E04DE029E10DE01AF8010B5A4635
:1035C00017999047B8F10108F7D25B462146384673
:1035D000179A13E142E00A220092C4F302524FF01C
:1035E000000A022A08D059F804CB032A4FEAEC71EA
:1035F0000AD00DE029E02AE009F1070121F00702D5
:10360000F2E802C1914609E00FFA8CFC4FEAEC7136
:10361000042A03D14FFA8CFC4FEAEC71002907DA37
:103620000A460021DCF1000C61EB02012D2202E0D0
:10363000220504D52B228DF80420012203E0E207A5
:1036400001D02022F7E7904659E00A2102E010223B
:103650000DE010214FF0000A00910BE010224FF016
:10366000000A44F004040827009203E008224FF007
:10367000000A0092C4F30252022A05D059F804CB82
:103680000021032A08D009E009F1070121F007020F
:10369000F2E802C1914605E01FFA8CFC042A01D130
:1036A0000CF0FF0C4FF00008220728D5702806D038
:1036B000009B83F0100353EA0A0305D00EE040227A
:1036C0008DF80420012208E05CEA010206D03022D5
:1036D0008DF804208DF8050002229046009B83F0AF
:1036E000080353EA0A030AD15CEA010201D1620726
:1036F00005D530228DF804204FF001087F1E582890
:1037000004D034A003900EA802900DE036A0F9E793
:1037100053466046009AFDF7B7F984460398825CE9
:103720000298401E029002705CEA0100F0D10298FB
:1037300006A9081A00F1200A600702D524F4803493
:1037400000E00127574502DDA7EB0A0000E000205A
:1037500000EB0A01009005984144401A0590E003EF
:1037600006D45B462146179A059800F0B3F9054444
:10377000002706E001A85A46C05D179990476D1CC6
:103780007F1C4745F6DBE0030CD55B462146179AC4
:10379000059800F09FF9054404E030205A46179937
:1037A00090476D1C0099481E00900029F5DC08E048
:1037B000029802995A460078491C0291179990473D
:1037C0006D1CBAF10001AAF1010AF1DC65E100000B
:1037D00009280100303132333435363738396162E7
:1037E00063646566000000003031323334353637AB
:1037F00038394142434445460000000000F058F982
:103800000544761C307800287FF4ECAD19B02846CA
:10381000BDE8F08F620700D4062709F1070222F005
:10382000070CFCE80223E14603F000485FEA080CBD
:1038300002D00FF2702C0DE05FEA045C02D50FF2AB
:10384000682C07E05FEAC47C02D00FF2602C01E034
:10385000AFF2700C4FF0FF3823F00043CDF850C0AA
:1038600065280CD006DC452809D046281DD04728FD
:103870003DD13DE0662818D067287ED138E0002190
:10388000112F01DB112000E0781CCDE9000106A911
:103890000EA8FFF7D5FCDDE90F010E9A0391002178
:1038A000009207F1010A04914DE04FF000400097AB
:1038B000CDE9011006A90EA8FFF7C2FCDDE90F0251
:1038C00003920E9B11990022DDF80CA00093049244
:1038D00011B9791C00EB010AB7EB0A0004D4C0F15E
:1038E000FF3007F1010A0490AAEB0700019044E0C1
:1038F000012F00DA01270021112F01DD112000E046
:103900003846CDE9000106A90EA8FFF799FCDDE9CC
:103910000F010E9A0391002104910092BA462107EB
:103920000CD40399514500DA8A46BAF1010F05DD3E
:10393000009AAAF10101515C302908D0B84202DA9C
:1039400010F1040F06DA0121CDE9011015E0AAF10A
:103950000101E9E7002805DC049901440491AAEB80
:10396000000102E0411C514500DD8A460499401ADD
:10397000401C01904FF000400290200704D40198B1
:10398000504501DBCDF8048000208DF84F000298EF
:103990000DF14F07B0F1004F25D02B200E9002986B
:1039A0004FF0020800280CDA404202902D200E90C1
:1039B00007E00A210298FDF751F83031029007F82C
:1039C000011DB8F10001A8F10108F2DC02980028FD
:1039D000EFD1791E0E980870307800F0200040F08A
:1039E000450007F8020D12A8C01B00F10708149843
:1039F000007800B1012000EB0A01019801EBE071B1
:103A000005984144401A401E0590E00306D45B46E9
:103A10002146179A059800F05DF80544149800783F
:103A200018B15A46179990476D1CE00324D55B46A0
:103A30002146179A059800F04DF805441CE00498BB
:103A4000002807DBDDE90301884203DD0098405CC4
:103A5000179901E0179930205A469047049805F1CC
:103A60000105401C04900198401E019004D12E20B5
:103A70005A46179990476D1CBAF10001AAF1010A44
:103A8000DDDC05E017F8010B5A46179990476D1CCD
:103A9000B8F10001A8F10108F4DC5B462146179A51
:103AA0000598ABE62D0000002B0000002000000070
:103AB0002DE9F041044600251E461746880404D42B
:103AC00005E039462020B0476D1C641EF9D5284614
:103AD000BDE8F0812DE9F041044600251E469046E0
:103AE000C80301D5302700E02027880404D505E06D
:103AF00041463846B0476D1C641EF9D52846BDE8DE
:103B0000F0814A68002A06D00A68531C0B601070C6
:103B10004868401E48607047014609B1086808B906
:103B20000020704719B1D1E90120904201D3084625
:103B3000F7E702E08868401C886041B1D1E90120C4
:103B4000904204D28A680868805C2028F2DDD1E9BE
:103B50000120904202D18868401E88600846E0E754
:103B600070B50446002522E02568A08900F4807025
:103B700020B9A06810B1A068FFF7F2FFA08900F497
:103B8000807028B9206918B10A4A206951688847AD
:103B9000A08900F4007028B9206A18B1054A206A8B
:103BA0005168884703484168204688472C46002CC6
:103BB000DAD170BD2C00002070B504460D460022FD
:103BC0002946204600F030F970BD70B50446282023
:103BD0002168884705461DB128212846FCF7C1FA0F
:103BE000284670BD70B504460D4600231A46294686
:103BF000204600F001F870BD2DE9F0478AB0044678
:103C00000E46154698461C2103A8FCF7AAFA002781
:103C100000202C490860486004B106B932E00394E2
:103C2000049600200590284A07CA07AB07C3264818
:103C3000FFF7CBFF074607B924E003A801F032F8ED
:103C40008246FFF769FF81464946384600F056FF35
:103C500000B917E0B8F1000F0BD003A8FFF75CFF25
:103C6000DDE90410884203D205990398405C00B155
:103C700008E01DB1059903980844286038460AB049
:103C8000BDE8F08717B13846FFF76AFFC4B1019469
:103C900000200290DDE90410884202D205980290CB
:103CA00004E0049810B10498401E02901DB1DDE9B3
:103CB0000101084428600348DDE9011206C000BF85
:103CC0000020DCE7240000202C00002070B5044612
:103CD0000D4604B10DB9012070BDAC4201D10020E8
:103CE000FAE705E0207808B90020F5E7641C6D1CB0
:103CF0002078FCF717FA06462878FCF713FA864274
:103D0000F0D02078FCF70EFA06462878FCF70AFA7D
:103D1000301AE1E700BF011EA0F10100FBD170479E
:103D200008B501210420FEF7FDF94FF40060ADF85D
:103D3000000048208DF8030002208DF8020069463B
:103D40000148FDF721FD08BD000801402DE9FC5F99
:103D500000F000FCCC2000F0EAFB442000F0E7FB80
:103D60002548FFF7D7FF00F0F5FBCC2000F0DFFB84
:103D7000BE2000F0DCFB002405E000F0D3FB01A92D
:103D80000855601CC4B2022CF7DB9DF8050007281B
:103D90000EDD9DF80400C043C0B28DF804009DF80C
:103DA0000500C043C0B28DF805004FF0010A01E0E4
:103DB0004FF0000A9DF805904FEA09200FFA80F9AC
:103DC0009DF8040040EA09094846FCF763FD0090AD
:103DD000FCF7DBFD07460022084BFCF7ECFC054630
:103DE000FCF716FE8346BAF1000F03D08BF00040BB
:103DF000BDE8FC9F5846FBE780CBA40000003040A4
:103E000070B504460D4600BF40210548FFF7B8F8DD
:103E10000028F9D0E1B20248FFF77FF9204670BDD3
:103E2000003801402E2070472DE9F04105460E462E
:103E30001746002405B116B90020BDE8F081AC6832
:103E40005FB100E024688CB1206A78B13046216A05
:103E5000FCF799F90028F5D108E000E024682CB1BE
:103E60003046216AFFF732FF0028F7D10CB1206AF3
:103E700008B90020E1E72046DFE7000008B501218E
:103E80000820FEF74FF901210846FEF74BF94820BC
:103E90008DF803000420ADF8000003208DF8020027
:103EA00069460248FDF770FC08BD0000000C0140A7
:103EB0000EB504210E48FDF7F2FC012817D14FF48E
:103EC000FA70FDF700FB04210948FDF7E8FC012822
:103ED0000DD1FDF791F9AA20552101221346CDE914
:103EE000002102900A46014602A0FFF70FF80EBD1E
:103EF000000C0140256420256420256420256420D1
:103F000025642025640000002DE9F0410B3020F0ED
:103F10000706104D19E02068B04215D3B0420AD907
:103F2000871B201DD4F80480FCF702F9A019C0E912
:103F30000078286004E060682860201DFCF7F8F82D
:103F4000201D2660BDE8F081251D2C68002CE2D1E3
:103F50000020F7E7880000200EB5FDF7D4FEFDF73E
:103F600031F9FDF71BFEFDF723F8FDF717FAFFF710
:103F7000D7FEFEF753F8FEF7D9FBFDF7A7FDFDF7D7
:103F8000F5FAFDF7C3FAFDF76FFDFFF777FFFEF7D0
:103F9000AFFAFDF7ADF8FDA201210846FDF7EEFFEF
:103FA000FDA201210220FDF7E9FFFEA2012103206D
:103FB000FDF7E4FF63E2FE480078012803D1052005
:103FC000FC49087018E0FA480078022803D1322032
:103FD000F849087010E0F6480078032803D16420FF
:103FE000F449087008E0F2480078042804D1002061
:103FF000F0490870EE4908700123ED4802780E215F
:104000000320FDF799FF0123EB480F2102681846B2
:10401000FDF792FFE7480078FDF7F6FFE7480278E2
:10402000022301210420FDF787FFE44842780223A0
:1040300004210846FDF780FFE0488278022307212B
:104040000420FDF779FF0120FCF798FFDC49088088
:1040500008460088FCF727FC80460022D94BFCF775
:10406000AAFB82460022D84BFCF733FB064600220F
:10407000D54BFCF72BFB0446FCF76EFCD3490880BC
:1040800002230846028804210120FDF755FF022083
:10409000FCF774FFCE490880C6480078FDF7B4FFEE
:1040A000CB480088FCF7FFFB80460022C54BFCF79D
:1040B00082FB06460022C44BFCF70BFB04460022A1
:1040C000C14BFCF703FB8246FCF746FCC149088064
:1040D0000223BF4802880A210420FDF72DFFBE49B4
:1040E000BE48FDF7AEF9B3480078FDF78DFF022317
:1040F000BA48027806211846FDF71EFFFFF726FE94
:10410000B7490860AB480078FDF77EFFB448006807
:10411000FCF7EFFB04460223224606210320FDF7AD
:104120000BFFB049AE480068FCF7FAF90546FCF70A
:10413000C7FB00B2642190FBF1F201FB12040223E1
:10414000224609210320FDF7F7FE9A480078FDF783
:104150005BFFFFF7ADFE97480078FDF755FFFEF7D0
:1041600043FB94480078FDF74FFF9D480068FCF73B
:10417000C0FBC4B29C4803789C480278214697480B
:104180000078FDF7D5FB8B480078FDF73DFF28212F
:104190008E480088FDF70EFC86480078FDF734FF56
:1041A0008548006802284CD182480078FDF72CFF32
:1041B00000243BE08EA201210420FDF7DFFEFDF785
:1041C000A5F904EB44018E4A52F83100FCF791FB4B
:1041D000C5B204EB44008A4901EBC000406904EB1E
:1041E0004401874A02EBC101097C04EB4402844B81
:1041F00003EBC202127BCDE90021029004EB4402E2
:104200001E4606EBC202137A04EB440206EBC2021E
:10421000117904EB440206EBC20290792A46FEF7BC
:1042200003FD64480078FDF7EFFE641C75480078D4
:104230008442BFDB7248FEF79DFF00207149087081
:104240007CE05D480068032819D16FA20121042099
:10425000FDF794FE62480068FCF74BFBC4B26E4861
:1042600000786E490978CDE900106D490B785749FF
:104270000878224659490978FEF79CFC5EE04E48D2
:104280000068042816D1FDF741F955480068FCF78D
:1042900030FBC4B26048007860490978CDE900106D
:1042A0005F490B784949087822464C490978FEF75E
:1042B00081FC43E04048006805283FD159A2012114
:1042C0000420FDF75BFE454800784E49097801EB74
:1042D00041014B4A02EBC10108714148006849495C
:1042E000097801EB410142F831003848008845491E
:1042F000097801EB410102EBC101C8804848006820
:104300004049097801EB410102EBC1018860434853
:1043100000683C49097801EB410102EBC101C8602A
:104320003D4800683749097801EB410102EBC101C2
:10433000086134480078401C324908703E480078D3
:1043400006287BD1254800782E49097801EB4101E8
:104350002B4A02EBC10108712148006829490978FC
:1043600001EB410142F831001848008825490978DD
:1043700001EB410102EBC101C880294800682149D5
:10438000097801EB410102EBC10158E04C493A3098
:1043900030304C757800000054656D313A30302E65
:1043A0003030430054656D323A30302E30304300A7
:1043B00064000020630000207800002090000020AE
:1043C000580000200000B040000059405A00002072
:1043D0005C0000205E0000206100002060000020E2
:1043E000740000200000C8426E0000206D00002014
:1043F000544350204C696E6B696E672E2E2E000060
:104400009C0C00206C0000207769666920636F6E49
:104410006E656374656400001800002014000020BD
:104420001C0000207769666920646973636F6E6E93
:1044300065637465640000005200002017E0886026
:104440000F4800680F49097801EB410102EBC101F7
:10445000C8600D4800680B49097801EB410102EB87
:10446000C101086107480078401C06490870FDF743
:10447000C3F80649086006480078FDF7C5FD9AE5CF
:10448000140000206C00002018000020780000209C
:104490006300002008B54FF40060ADF8000048202C
:1044A0008DF8030002208DF8020069460148FDF7EF
:1044B0006BF908BD0008014008B54FF40060ADF885
:1044C000000010208DF8030002208DF802006946DC
:1044D0000148FDF759F908BD0008014010B5044630
:1044E000FFF7EAFF4FF400610D48FDF7E1F90E20F8
:1044F000FFF710FC0CB1FFF7CDFF8120FFF70AFC9E
:104500004FF400610648FDF7CAF900B900244FF4E2
:104510002270FFF7FFFBFFF7BDFF204610BD000034
:104520000008014010B5FF2000F001F810BD70B583
:104530000446082600BF04F00100FFF7CFFF054640
:1045400064100DB144F08004701EC0B2061EF2D19A
:10455000204670BD10B5FFF7AFFF4FF40061104863
:10456000FDF7A6F94FF4B450FFF7D4FBFFF792FF25
:1045700040F2B630FFF7CEFB4FF400610848FDF77C
:104580008EF9044641F24970FFF7C4FB4FF4006115
:104590000348FDF784F900B90124204610BD00004E
:1045A000000801402DE9F04180460C460025002717
:1045B000E068B0F57A7F02D30020BDE8F081E068C2
:1045C000401CE060A1682068405C5B2800D05FE090
:1045D000A068401CA0602046FFF79EFA4CB1D4E9C9
:1045E0000110884205D2A1682068405C5D2800D196
:1045F0003FE01CB1D4E90110884203D3A068401EFB
:10460000A06045E0A068401EA06000BF04F110005B
:10461000FFF7DBFA064606B93AE015B935463746E4
:1046200002E03E6077603746A068401CA0602046EC
:10463000FFF772FA2146384600F060FA00B927E029
:104640002046FFF769FA44B1D4E90110884204D248
:10465000A1682068405C2C28D8D044B1D4E901106E
:10466000884204D2A1682068405C5D2800D00FE039
:1046700000BFE068401EE06005B16F602020C8F810
:104680000C00C8F80850A068401CA060012094E706
:1046900015B12846FFF764FA00208EE70246002392
:1046A000002100BF23E0505C302806DB505C392835
:1046B00003DC505C3038034415E0505C412806DBD5
:1046C000505C462803DC505C373803440BE0505CF8
:1046D000612806DB505C662803DC505C57380344D5
:1046E00001E000207047032900D21B01491C042966
:1046F000D9D31846F6E700002DE9F04391B0804683
:104700000C4600BF00201090FFF78CFB814600256F
:104710000CB1206818B9002011B0BDE8F083002565
:104720003CE0A16820680844405D342820D00ADCC1
:10473000A0F12B0009282ED2DFE800F0202D212A3D
:104740002D1617181900382816D006DC352810D079
:1047500036280FD037281ED10DE039280DD0452836
:104760000FD0652817D10BE000BF00BF00BF00BF0E
:1047700000BF00BF00BF00BF00BF00BF00BF00BF41
:1047800000BFA16820680844405D0DF8050003E003
:104790000DF8059000E00AE000BF6D1C3F2D05D22A
:1047A00024B1A068284461688842BAD300BF0020C1
:1047B0000DF8050010A9684600F092FA06460F466B
:1047C00068461099884201D10020A5E7C8E906672C
:1047D000144A154B30463946FCF702F904D86FF0FD
:1047E0000040C8F8140011E00022104B3046394652
:1047F000FCF7DEF804D84FF00040C8F8140005E0DC
:1048000030463946FCF789F8C8F814000820C8F883
:104810000C00A0686A461099891A0844A06001201B
:104820007AE700000000C0FFFFFFDF410000E0C1A9
:104830002DE9F04180460C4600260025E068B0F5E1
:104840007A7F02D30020BDE8F081E068401CE06080
:1048500044B1D4E90110884204D2A1682068405CC8
:104860007B2800D07DE0A068401CA0602046FFF7B8
:1048700053F94CB1D4E90110884205D2A1682068EF
:10488000405C7D2800D15DE01CB1D4E90110884274
:1048900003D3A068401EA06063E0A068401EA06033
:1048A00000BF04F11000FFF790F9074607B958E080
:1048B00016B93E463D4602E02F607D603D46A06849
:1048C000401CA0602046FFF727F92146284600F04B
:1048D0004EF800B945E02046FFF71EF92869286226
:1048E0000020286144B1D4E90110884204D2A168B3
:1048F0002068405C3A2800D033E0A068401CA060EB
:104900002046FFF709F92146284600F0F7F800B9DC
:1049100027E02046FFF700F944B1D4E901108842AE
:1049200004D2A1682068405C2C28BAD044B1D4E9F4
:104930000110884204D2A1682068405C7D2800D024
:104940000FE000BFE068401EE06006B175604020E7
:10495000C8F80C00C8F80860A068401CA0600120DE
:1049600071E716B13046FFF7FBF800206BE72DE941
:10497000F84F80460C46A16820680844461CA16890
:1049800020680844451C002000900027A16820688A
:10499000405C222800D0A6E04FF0000AD1460DE08E
:1049A00028785C2809D1681C2168401A616888420F
:1049B00000D398E009F101096D1C6D1C2068281ACC
:1049C0006168884202D228782228E9D12068281A12
:1049D0006168884202D22878222800D083E0A1684A
:1049E00020680844281AA0EB090A0AF1010021698D
:1049F0008847074607B976E0009761E030785C2881
:104A000007D016F8010B009908700098401C009020
:104A100056E04FF00209A81B012800DA63E0707825
:104A2000662819D008DC222832D02F2832D05C2802
:104A30002FD0622840D108E06E2814D0722819D0F7
:104A400074281ED0752837D12BE0082000990870F3
:104A50000098401C009030E00C20009908700098ED
:104A6000401C009029E00A20009908700098401C22
:104A7000009022E00D20009908700098401C0090E2
:104A80001BE00920009908700098401C009014E079
:104A900000BF00BF7078009908700098401C00901B
:104AA0000BE06A462946304600F028F98146B9F104
:104AB000000F00D117E000E015E000BF4E4400BF3A
:104AC000AE429BD30020009908701020C8F80C005B
:104AD000C8F810702068281AA060A068401CA06068
:104AE0000120BDE8F88F17B138466169884716B1D3
:104AF0002068301AA0600020F3E7000070B505467A
:104B00000C460CB1206808B9002070BD9CB1A068AB
:104B1000001D616888420ED8A268216888180422A6
:104B20003FA1FBF73EFB30B90420E860A068001D00
:104B3000A0600120E9E79CB1A068401D616888423F
:104B40000ED8A26821688818052237A1FBF729FB37
:104B500030B90120E860A068401DA0600120D4E7C2
:104B6000ACB1A068001D6168884210D8A2682168B5
:104B7000881804222EA1FBF714FB40B90220E8603C
:104B800001206861A068001DA0600120BDE76CB134
:104B9000D4E90110884209D2A1682068405C22282B
:104BA00004D121462846FFF7E2FEAEE7BCB1D4E9C6
:104BB0000110884213D2A1682068405C2D2809D0DA
:104BC000A1682068405C302809DBA1682068405C4F
:104BD000392804DC21462846FFF78EFD95E76CB1A5
:104BE000D4E90110884209D2A1682068405C5B28A2
:104BF00004D121462846FFF7D5FC86E76CB1D4E9FD
:104C00000110884209D2A1682068405C7B2804D149
:104C100021462846FFF70CFE77E7002075E70000E5
:104C20006E756C6C0000000066616C7365000000BE
:104C300074727565000000002DE9F04704008A4693
:104C400016D054F8047CD4F800903E1F564500D985
:104C500056462046FEF78EFA0546884632462146DD
:104C60005046FFF751F940B1C0F80090BDE8F08719
:104C7000BDE8F0470846FEF7ABBA44E9017955B103
:104C800029686A18211F8A4202D9611B091F2960FD
:104C9000C5F80480EAE7024AC2F80080E6E70000AF
:104CA0008800002010B504461CB1206808B1A06837
:104CB00008B1002010BD7CB1A068001D6168884269
:104CC0000AD2A26821688818032204A1FBF769FAB6
:104CD00010B9A068C01CA0602046EBE7EFBBBF0086
:104CE00000B583B00A460021CDE9001101466846AF
:104CF000FBF767FFDDE9000103B000BD2DE9FF5FB1
:104D000080468946154600240026C24600200390AE
:104D1000834602900190A9EB0A00062800DA81E0A0
:104D20000AF10200FFF7BAFC0646B6F55C4F03D362
:104D3000B6F5604F00D275E0B6F5584F29D3B6F5F9
:104D40005C4F26D20AF10607002000900C2002904A
:104D5000A9EB0700062800DA64E038785C2802D165
:104D60007878752800D05DE0B81CFFF797FC0090BC
:104D70000098B0F55C4F03D30098B0F5604F00D3B6
:104D800050E0C6F30901009861F39F2000F58034DC
:104D900002E0062002903446802C02D201200390CB
:104DA00018E0B4F5006F04D202200390C0200190F7
:104DB00010E0B4F5803F04D203200390E02001907E
:104DC00008E0B4F5881F04D204200390F02001907D
:104DD00000E027E00398401E00F0FF0B0BE004F01A
:104DE000BF0040F08000296801F80B00A409ABF176
:104DF000010000F0FF0BBBF1000FF0DC039801286D
:104E000004DD019820432968087003E004F07F0066
:104E1000296808702968039808442860029804B03B
:104E2000BDE8F09F0020FAE7000303060104060234
:104E3000050003051F1C1F1E1F1E1F1F1E1F1E1FF8
:104E40000000000000000000000000000000000062
:104E5000000000F8000000000000003330000000F7
:104E600000100C06100C06000000000000000000FE
:104E700040C07840C0784000043F04043F04040070
:104E8000007088FC08300000001820FF211E000080
:104E9000F008F000E018000000211C031E211E0095
:104EA00000F00888700000001E212324192721101B
:104EB00010160E00000000000000000000000000BE
:104EC000000000E018040200000000071820400065
:104ED00000020418E0000000004020180700000055
:104EE000404080F0804040000202010F01020200B9
:104EF000000000F0000000000101011F010101009D
:104F0000000000000000000080B070000000000001
:104F1000000000000000000000010101010101018A
:104F20000000000000000000003030000000000021
:104F300000000000806018040060180601000000F6
:104F400000E010080810E000000F102020100F00F3
:104F5000001010F8000000000020203F202000007A
:104F600000700808088870000030282422213000D2
:104F700000300888884830000018202020110E00DA
:104F80000000C02010F8000000070424243F240083
:104F900000F80888880808000019212020110E0058
:104FA00000E0108888180000000F112020110E006A
:104FB00000380808C83808000000003F0000000062
:104FC0000070880808887000001C222121221C0023
:104FD00000E010080810E0000000312222110F004C
:104FE000000000C0C00000000000003030000000E1
:104FF0000000008000000000000080600000000051
:105000000000804020100800000102040810200069
:1050100040404040404040000404040404040400B4
:105020000008102040800000002010080402010049
:10503000007048080808F000000000303601000049
:10504000C030C828E810E0000718272423140B00FC
:105050000000C038E0000000203C23020227382076
:1050600008F8888888700000203F202020110E005A
:10507000C030080808083800071820202010080051
:1050800008F808080810E000203F202020100F003A
:1050900008F88888E8081000203F20202320180006
:1050A00008F88888E8081000203F2000030000006E
:1050B000C03008080838000007182020221E02000F
:1050C00008F808000008F808203F210101213F20CE
:1050D000000808F8080800000020203F20200000F9
:1050E00000000808F8080800C08080807F000000E9
:1050F00008F888C028180800203F20012638200022
:1051000008F8080000000000203F20202020300088
:1051100008F8F800F8F80800203F003F003F2000A2
:1051200008F830C00008F808203F200007183F00AA
:10513000E01008080810E0000F10202020100F00D9
:1051400008F808080808F000203F210101010000CC
:10515000E01008080810E0000F18242438504F0011
:1051600008F8888888887000203F2000030C3020D1
:1051700000708808080838000038202121221C000F
:10518000180808F8080818000000203F2000000058
:1051900008F808000008F808001F202020201F0041
:1051A0000878880000C83808000007380E010000A1
:1051B000F80800F80008F800033C0700073C03006B
:1051C000081868808068180820302C03032C3020D1
:1051D0000838C800C83808000000203F2000000040
:1051E00010080808C8380800203826212020180098
:1051F000000000FE020202000000007F404040006C
:10520000000C30C000000000000000010638C000A3
:1052100000020202FE000000004040407F0000004B
:105220000000040202020400000000000000000070
:10523000000000000000000080808080808080806E
:105240000002020400000000000000000000000056
:1052500000008080808000000019242222223F204C
:1052600008F8008080000000003F112020110E008F
:105270000000008080800000000E1120202011001E
:10528000000000808088F800000E112020103F20D0
:105290000000808080800000001F22222222130054
:1052A000008080F0888888180020203F202000009F
:1052B0000000808080808000006B94949493600054
:1052C00008F8008080800000203F210000203F205F
:1052D00000809898000000000020203F202000005F
:1052E000000000809898000000C08080807F00004F
:1052F00008F8000080808000203F24022D3020002C
:10530000000808F8000000000020203F20200000D6
:105310008080808080808000203F20003F20003FF0
:105320008080008080800000203F210000203F20FE
:105330000000808080800000001F202020201F00AF
:10534000808000808000000080FFA12020110E00DE
:105350000000008080808000000E112020A0FF80CF
:10536000808080008080800020203F21200001007C
:1053700000008080808080000033242424241900D1
:10538000008080E0808000000000001F20200000DE
:105390008080000000808000001F202020103F201F
:1053A000808080000080808000010E3008060100AF
:1053B00080800080008080800F300C030C300F0054
:1053C00000808000808080000020312E0E3120007F
:1053D000808080000080808080818E7018060100AF
:1053E00000808080808080000021302C22213000CD
:1053F00000000000807C020200000000003F4040EE
:1054000000000000FF00000000000000FF0000009E
:105410000002027C800000000040403F00000000CD
:105420000006010102020404000000000000000068
:105430001060028C0000FE9292929292FE00000098
:10544000000000000000000000000000000000005C
:1054500004047E01407E42427E427E42427E400003
:10546000000000000000000000000000000000003C
:105470000000FC242424FC252624FC2424240400ED
:10548000000000000000000000000000000000001C
:1054900040308F80844C55252525554C80808000D8
:1054A00000000000000000000000000000000000FC
:1054B00000000000000000000000000000000000EC
:1054C00000000000000000000000000000000000DC
:1054D000000058380000000000000000000000003C
:1054E00000000000000000000000000000000000BC
:1054F000404042CC000000FC0404040404FC000012
:10550000000000000000000000000000000000009B
:105510000000003F10884023190101091123C00039
:10552000000000000000000000000000000000007B
:10553000003E22E22222223E0000F80000FF00008E
:10554000000000000000000000000000000000005B
:105550008141310F4181413F00000F40807F0000B9
:10556000000000000000000000000000000000003B
:105570000000F8888888880808FF08090AC8080019
:10558000000000000000000000000000000000001B
:1055900080601F0010201F80402116182641F8004F
:1055A00000000000000000000000000000000000FB
:1055B000080808F80808081010FF101010F0000084
:1055C00000000000000000000000000000000000DB
:1055D0001030101F088848300E014080403F000006
:1055E00000000000000000000000000000000000BB
:1055F00000000000000000000000000000000000AB
:10560000000000000000000000000000000000009A
:1056100000005838000000000000000000000000FA
:10562000000000000000000000000000000000007A
:105630001060028C00FE929292929292FE00000004
:10564000000000000000000000000000000000005A
:1056500004047E014448507F40407F50484440004D
:10566000000000000000000000000000000000003A
:105670000000FC242424FC252624FC2424240400EB
:10568000000000000000000000000000000000001A
:1056900040308F80844C55252525554C80808000D6
:1056A00000000000000000000000000000000000FA
:1056B00000000000000000000000000000000000EA
:1056C00000000000000000000000000000000000DA
:1056D000000058380000000000000000000000003A
:1056E00000000000000000000000000000000000BA
:1056F0004040424458C0407F40C05048464040006F
:105700000000000000000000000000000000000099
:105710008080402018070000003F40404040780053
:105720000000000000000000000000000000000079
:1057300000FE424242FE0042A29E82A2C2BE000081
:105740000000000000000000000000000000000059
:10575000806F080828CF00002FC8080828CF000055
:105760000000000000000000000000000000000039
:105770000000FC242424FC252624FC2424240400EA
:105780000000000000000000000000000000000019
:1057900040308F80844C55252525554C80808000D5
:1057A00000000000000000000000000000000000F9
:1057B000DDDDDDDDDCBBBBDDDDDDDDDDDDDDDDDD5E
:1057C000988888888888888877777777778888889E
:1057D0008555555666666666666666666668888836
:1057E0008333333222222222222222222228888D2F
:1057F0003139322E3136382E312E31303100000021
:1058000031323434340000003132333435363738F5
:105810003900000054502D4C494E4B5F3434334214
:10582000354300007B226C64223A222564222C221C
:1058300074656D7031223A222564222C2274656DC4
:105840007032223A222564222C226C696768742205
:105850003A222564222C2276656E74223A2225642F
:10586000222C22697272223A222564222C2264653B
:10587000766963654964223A2231227D0000000086
:105880007B2274656D7031223A222564222C2274A9
:10589000656D7032223A222564222C226C64223AF1
:1058A000222564222C226C69676874223A222564BE
:1058B000222C2276656E74223A222564222C2269DB
:1058C0007272223A222564222C226465766963650D
:1058D0004964223A2231222C2274696D65223A22CF
:1058E000256C64227D00000008590008000000209B
:1058F0009000000020320008985900089000002015
:1059000010420000303200080000000001020304D1
:10591000010203040607080902040608000000004B
:105920000000000000000000000000000000000077
:1059300000000000D131000875310008394C000822
:10594000000000001458000808580008F05700082C
:1059500000580008000000000100000000000000E6
:105960000000000000000000000000000001020331
:105970000400000000000000000000000000000023
:105980000000000000000000000000000000000017
:0859900000000000000000000F
:04000005080000ED02
:00000001FF
